:020000040000FA
:0400000000000728CD
:0800080005080B10090083122A
:1000100085010730990083160F3081009F0185010B
:100020008516051485148515151495148312051568
:10003000353090008B178B155221522152213921D6
:10004000A3016400E120851A21284520AC00AC08FA
:10005000031D21283008CA3A031D37283108503AB9
:10006000031D37283208F33A031D37281F213008B3
:100070004A3A031D21283108553A031D2128320828
:10008000AB3A031D212822212128B301851A5528C6
:10009000B30A5C215C215C215C2100000319093456
:1000A0003308A03C031C023446283308643C031880
:1000B0000134B301851E6928B30A5C215C215C21EF
:1000C0005C210000031909343308B03C031C0434DC
:1000D0005A283308643C03180334B301851A79287D
:1000E000B30A0000031909343308403C031C0634EA
:1000F0006E283030B5000830B600B301851E89285F
:10010000B30A0000031909343308FA3C031C08340D
:100110007E283308013C031807343308893CB40CAB
:10012000B301B60303199F28851A7D28B30A00007E
:10013000031909343308403C031C0634942835085D
:1001400084003408FF3A80000830B600B50A35084C
:10015000333C031D9428851AB628B30A00000319FE
:1001600009343308403C031C0634AB280034AB0090
:100170000308AA000B19C0202A0883002B080900D5
:100180000B1108002D08013AAD0005122D180516B7
:1001900008001930A9006400D620A90BCB2808005C
:1001A0006400D620D620D62008006400FF30A700C7
:1001B000DC20A70BD8280800FF30A800A80BDE28F9
:1001C00008000F08A70024082702031908002708C1
:1001D000A40003180800A50A251808000518172907
:1001E000A00803191729A301851D17292018FB282A
:1001F000A0180929172921184D21A001A201A30146
:10020000A10A2108043C03180800851D1D29292185
:10021000080022184D21A001A101A301A20A220871
:10022000043C03180800851D1D29302108005021B9
:10023000A30AF030230203194021392108000230BB
:10024000A00008000130A0008519080029213921EB
:10025000080005115921D5200515C92039210800AC
:1002600005115921D5200515D520D520D5202921C6
:100270000800A001A101A201A5010F08A400080027
:1002800064005221A3018316961683126300031E95
:1002900046298316961283120800851C051608004D
:1002A000051208004D21D5205021D52008005221EB
:1002B000080052215221080008005D295D295D29AE
:1002C0005D295D295D295D295D295D295D295D29FE
:1002D0005D295D295D295D295D295D295D295D29EE
:1002E0005D295D295D295D295D295D295D295D29DE
:1002F0005D295D295D295D295D295D295D295D29CE
:02400E00CC3FA5
:00000001FF
