:020000040000FA
:0400000000000C28C8
:08000800152B3B0882070234AE
:10001000053403340334033483164F3081009101D7
:10002000FF308500851287018714071496159614F2
:1000300016148316FF2390008312073099000C30AA
:100040009F00503083169F000C301108831235300A
:1000500090008E018F0183160C1483120830B500B6
:10006000BC010330B700B801AA22BA018B170B17E5
:10007000851D7929E622E622D621E4216400BA080A
:1000800003193E28BA194728BA01E6224C20BA01C2
:10009000E622E622AE2044280030BB003B0AC30023
:1000A000D422C30B502820303B078400000AC30031
:1000B000DE22C30B58286400BA0803195B28BA1D56
:1000C0006328BA010800BA1C6C28BA01BB0A3B08B5
:1000D000073C0319BB014E283A1C8828BA013B088B
:1000E000053C03198A283B08063C03198C2820305C
:1000F0003B0784000008C300C30A0520430203191C
:10010000C30120303B07840043088000BD225328F0
:10011000BA015B288D204E285B288D309F00871602
:100120009F1464009F18912883161E088312BE0036
:100130003E08603C0318A2283E08803C031CA2280D
:10014000D422A328DE2203011E22BA08031DA928F7
:10015000902887120C309F00BA0108003C18B22882
:100160003C149B22A1307A22D6217A222C21B9007C
:100170006400B9080319D828BA08031DC028B82894
:100180003A08093A031DCE28BA01AC307A22390860
:100190007A2203011E221E221E22D828BA1DD3282D
:1001A000BA013621B828A7307A22D6217022080059
:1001B000F420003E031DDF280230B900B828482192
:1001C000BA08031DC028201CED28632103011E224C
:1001D0001E221E223621BA01B8280230B900B828E2
:1001E00087120C309F00C0288D309F008716BD01FC
:1001F000BF012830C00082301E221E229F146400DE
:100200009F18FF2883161E088312BF00BA08031D1B
:10021000F02882301E221E229F1464009F180D2990
:1002200083161E088312BE00C3013E083F02C300AE
:10023000C31B003C033C031CBD0A3E08BF00C00BAF
:10024000062987120C309F00B0303D077A22043017
:100250003D020318013400342108C300C30E03100B
:10026000C30DC302C3021E3043070800E622DE228C
:10027000D422D422DE22E622E6221E30B9072C2127
:100280003902031C45292C21B90039087A220800BB
:10029000033023180530A3180A30C600C701BA0876
:1002A000031D6229F222A20803195C29221C5A2983
:1002B00047185C292A225F29C3301E221E224714B8
:1002C000C60B4F2908000A30B9006400BA08031DA4
:1002D0007729B908031D6529A5307A222A228715B6
:1002E00085162A2287118512BA0803196E29BA01C8
:1002F000080007168316871083128714E622E62269
:10030000E6226400071881298B1303301E22DC22A9
:10031000C101AA30AF21CD30AF21C30143083B2238
:10032000AF21C30AC31F8E298D30AF210330AF2107
:100330002830AF218230AF210430AF210230AF210D
:100340000A30AF211E30AF21CD30AF21AA30AF210E
:100350004108AF214108AF21D2228B138129C4006B
:10036000C1060830C5008710CF2100000000000042
:1003700000000000C40C0318C02900008710C32926
:10038000871400000000CF21C50BBA29000000002F
:100390000000000000008714CF21CF210800163094
:1003A000C2006400C20BD129000008000716093002
:1003B0009F0001301E229F1464009F18DC29071241
:1003C0000C309F001E080800C300E5304302031CE8
:1003D000ED29D222D222D2220800CC304302031CC3
:1003E000F429D222D2220800B2304302031CFA2997
:1003F000D222080099304302031C002ADC220800A4
:1004000040304302031C072ADC22DC220800DC22E5
:10041000DC22DC220800AD000330AE002D08AD0068
:10042000C4001030AF0044088716AD0B182A87129D
:10043000AF0B152A6400AE0B0F2A0800AA00A90111
:10044000A90B202A6400AA0B202A0800A900A90BE6
:10045000272A080031223122312231223122312251
:1004600008004030C300013007151E2207111E226C
:10047000C30B342A080083169B001C141A0883122D
:100480000800B100B11B5B2A83169B0030089A005C
:100490001C158B1355309D00AA309D009C141C1117
:1004A00064009C18502A8B1730081C141A06031D70
:1004B000462A831208008030B5000800C3064306B0
:1004C000C30638086B2AB00035084122B50A440833
:1004D000C3064306C306B00035084122B50A4308E7
:1004E000B00035084122B50ADD30B00035084122A0
:1004F000B50A0800C300321C8F2A33020319852A6B
:10050000B2014308B300B000972AB40A2030340285
:100510000319802AB5033408D03EB000972A33026D
:10052000031D802A3214B401D030B000972A350858
:100530004122B50A0800B201FF30B0000830B50012
:1005400035084122B50A80303502031DA02A083043
:10055000B500080000303B22A00001303B22A10082
:1005600002303B22A20003303B22A30004303B2296
:10057000A400A501A601640008002008B000003016
:1005800041222108B000013041222208B00002308F
:1005900041222308B000033041222408B000043077
:1005A000412208006130D52AC33087151E221E2241
:1005B00087111E221E2208006130DF2AC3308516F3
:1005C0001E221E2285121E221E2208008715851655
:1005D0003122312203011E2287118512C3301E22CF
:1005E0001E2208002418012BA4180D2B1E30C30056
:1005F000063087158711851685121E22C30B042B22
:100600000800C130C3000130871585161E228711EE
:1006100085121E22C30B042B080087158516C330D4
:100620001E221E22871185120800A800030EA700B3
:1006300083120C1822230B182E23270E8300A80EDA
:10064000280E0900B60A36182C2BB703031D2C2BD5
:10065000B80A1D30B700B9030C100800851DBA1583
:10066000851CBA14051C3A140D301E220B1008000C
:100670000800392B392B392B392B392B392B392BB6
:10068000392B392B392B392B392B392B392B392B4A
:10069000392B392B392B392B392B392B392B392B3A
:1006A000392B392B392B392B392B392B392B392B2A
:1006B000392B392B392B392B392B392B392B392B1A
:1006C000392B392B392B392B392B392B392B392B0A
:1006D000392B392B392B392B392B392B392B392BFA
:1006E000392B392B392B392B392B392B392B392BEA
:1006F000392B392B392B392B392B392B392B392BDA
:10070000392B392B392B392B392B392B392B392BC9
:10071000392B392B392B392B392B392B392B392BB9
:10072000392B392B392B392B392B392B392B392BA9
:10073000392B392B392B392B392B392B392B392B99
:10074000392B392B392B392B392B392B392B392B89
:10075000392B392B392B392B392B392B392B392B79
:10076000392B392B392B392B392B392B392B392B69
:10077000392B392B392B392B392B392B392B392B59
:10078000392B392B392B392B392B392B392B392B49
:10079000392B392B392B392B392B392B392B392B39
:1007A000392B392B392B392B392B392B392B392B29
:1007B000392B392B392B392B392B392B392B392B19
:1007C000392B392B392B392B392B392B392B392B09
:1007D000392B392B392B392B392B392B392B392BF9
:1007E0008D30033028308230043002300A301E3021
:0E07F0001D30392B392B392B392B392B392B56
:084000000200060008000D009B
:02400E00CC3FA5
:104200000000040001000100010000000000FF00A8
:10421000EE00EE00EE00EE00EE00EE00EE00EE002E
:10422000EE00EE00EE00EE00EE00EE00EE00EE001E
:10423000EE00EE00EE00EE00EE00EE00EE00EE000E
:10424000EE00EE00EE00EE00EE00EE00EE00EE00FE
:10425000EE00EE00EE00EE00EE00EE00EE00EE00EE
:10426000EE00EE00EE00EE00EE00EE00EE00EE00DE
:10427000EE00EE00EE00EE00EE00EE00EE00EE00CE
:10428000EE00EE00EE00EE00EE00EE00EE00EE00BE
:10429000EE00EE00EE00EE00EE00EE00EE00EE00AE
:1042A000EE00EE00EE00EE00EE00EE00EE00EE009E
:1042B000EE00EE00EE00EE00EE00EE00EE00EE008E
:1042C000EE00EE00EE00EE00EE00EE00EE00EE007E
:1042D000EE00EE00EE00EE00EE00EE00EE00EE006E
:1042E000EE00EE00EE00EE00EE00EE00EE00EE005E
:1042F000EE00EE00EE00EE00EE00EE00EE00EE004E
:00000001FF
